{"merkleroot": "a0aa2c326751e5e856ad74ee77590633db5271659812b660a133af6d57d00cd6", "nonce": 178, "previousblockhash": "00efb9e21389777ff35337e0f19aa943a6f36feee6938a7310cee51b38f18ca2", "hash": "0000675904cdf17e8452a3a2e19de1516a38a8e5a37fc5558ace47647fb0e221", "version": 3, "tx": [{"vout": [{"scriptPubKey": {"reqSigs": 1, "hex": "76a9148821f99a6fc60f5f2fecb81af143f077f8db4a0a88ac", "addresses": ["1KQ9BWtPmBKbxZRYBB7SR3CGCqDBF3bZWc3nqS"], "asm": "OP_DUP OP_HASH160 8821f99a6fc60f5f2fecb81af143f077f8db4a0a OP_EQUALVERIFY OP_CHECKSIG", "type": "pubkeyhash"}, "value": 0, "n": 0}, {"scriptPubKey": {"type": "nulldata", "hex": "6a4c6e53504b6246304402203a8f3010d3277b6c2014bdbf9ddd3e76b5ba088bb2422a5cb369ccab233adbe30220743560ef3edfa8a0843f63e39bdc34fd121d2cad87040969c5c3de9ba950f0ce0321028e897759bc8098265e61ff9ba87bb89cc3e82ebe8d1003b9cf50272abe1dc786", "asm": "OP_RETURN 53504b6246304402203a8f3010d3277b6c2014bdbf9ddd3e76b5ba088bb2422a5cb369ccab233adbe30220743560ef3edfa8a0843f63e39bdc34fd121d2cad87040969c5c3de9ba950f0ce0321028e897759bc8098265e61ff9ba87bb89cc3e82ebe8d1003b9cf50272abe1dc786"}, "data": ["53504b6246304402203a8f3010d3277b6c2014bdbf9ddd3e76b5ba088bb2422a5cb369ccab233adbe30220743560ef3edfa8a0843f63e39bdc34fd121d2cad87040969c5c3de9ba950f0ce0321028e897759bc8098265e61ff9ba87bb89cc3e82ebe8d1003b9cf50272abe1dc786"], "value": 0, "n": 1}], "vin": [{"coinbase": "510101062f503253482f", "sequence": 4294967295}], "hex": "01000000010000000000000000000000000000000000000000000000000000000000000000ffffffff0a510101062f503253482fffffffff0200000000000000001976a9148821f99a6fc60f5f2fecb81af143f077f8db4a0a88ac0000000000000000716a4c6e53504b6246304402203a8f3010d3277b6c2014bdbf9ddd3e76b5ba088bb2422a5cb369ccab233adbe30220743560ef3edfa8a0843f63e39bdc34fd121d2cad87040969c5c3de9ba950f0ce0321028e897759bc8098265e61ff9ba87bb89cc3e82ebe8d1003b9cf50272abe1dc78600000000", "txid": "a0aa2c326751e5e856ad74ee77590633db5271659812b660a133af6d57d00cd6", "version": 1, "locktime": 0}], "chainwork": "0000000000000000000000000000000000000000000000000000000000000200", "miner": "1KQ9BWtPmBKbxZRYBB7SR3CGCqDBF3bZWc3nqS", "height": 1, "difficulty": 5.96046447753906e-08, "nextblockhash": "00606eac2f194978a69438bbbc106d10a5b633b5b20f63ab8a22ac3577081a73", "confirmations": 59, "time": 1550411829, "bits": "2000ffff", "size": 298}