{"merkleroot": "a18b5075c62549ae83215396af874b679e5416cd8b9a6f94595d67ef0a324396", "nonce": 108, "hash": "00efb9e21389777ff35337e0f19aa943a6f36feee6938a7310cee51b38f18ca2", "version": 1, "tx": [{"vout": [{"permissions": [{"activate": true, "startblock": 0, "for": null, "receive": true, "timestamp": 1550411828, "create": true, "mine": true, "send": true, "custom": [], "admin": true, "connect": true, "issue": true, "endblock": 4294967295}], "scriptPubKey": {"reqSigs": 1, "hex": "76a9148821f99a6fc60f5f2fecb81af143f077f8db4a0a88ac1473706b703731000000000000ffffffff3468695c75", "addresses": ["1KQ9BWtPmBKbxZRYBB7SR3CGCqDBF3bZWc3nqS"], "asm": "OP_DUP OP_HASH160 8821f99a6fc60f5f2fecb81af143f077f8db4a0a OP_EQUALVERIFY OP_CHECKSIG 73706b703731000000000000ffffffff3468695c OP_DROP", "type": "pubkeyhash"}, "value": 0, "n": 0}, {"scriptPubKey": {"type": "nulldata", "hex": "1073706b6e0200040101000104726f6f74756a", "asm": "73706b6e0200040101000104726f6f74 OP_DROP OP_RETURN"}, "value": 0, "n": 1}], "hex": "01000000010000000000000000000000000000000000000000000000000000000000000000ffffffff1904ffff00200104114d756c7469436861696e20636861696e34ffffffff0200000000000000002f76a9148821f99a6fc60f5f2fecb81af143f077f8db4a0a88ac1473706b703731000000000000ffffffff3468695c750000000000000000131073706b6e0200040101000104726f6f74756a00000000", "create": {"restrict": {"write": false, "onchain": false, "offchain": false}, "type": "stream", "name": "root", "streamref": "0-0-0", "details": {}}, "vin": [{"coinbase": "04ffff00200104114d756c7469436861696e20636861696e34", "sequence": 4294967295}], "txid": "a18b5075c62549ae83215396af874b679e5416cd8b9a6f94595d67ef0a324396", "version": 1, "locktime": 0}], "chainwork": "0000000000000000000000000000000000000000000000000000000000000100", "miner": "1KQ9BWtPmBKbxZRYBB7SR3CGCqDBF3bZWc3nqS", "height": 0, "difficulty": 5.96046447753906e-08, "nextblockhash": "0000675904cdf17e8452a3a2e19de1516a38a8e5a37fc5558ace47647fb0e221", "confirmations": 60, "time": 1550411828, "bits": "2000ffff", "size": 241}